:020000040800F2
:10000000B06F0020F50100080D230008551A000804
:1000100009230008D50B0008F3AD0008000000001C
:10002000000000000000000000000000834E0008F7
:100030009112000800000000830200080950000827
:100040000F0200080F0200080F0200080F0200084C
:100050000F0200080F0200080F0200080F0200083C
:100060000F020008D91200080F0200080F02000852
:100070000F0200080F0200080F0200080F0200081C
:100080000F0200080F0200080F0200080F0200080C
:100090000F0200080F0200080F0200080F020008FC
:1000A0000F02000829A600080F0200080F0200082E
:1000B00019A700080F02000895A700080F02000802
:1000C0000F0200080F0200080F0200080F020008CC
:1000D0000F02000875AA0008E1AA00080F02000834
:1000E0000F0200080F0200080F0200080F020008AC
:1000F0000F0200080F0200080F0200080F0200089C
:100100000F0200083534000871A800080F0200082B
:100110000F0200080F020008D5A800080F0200080F
:100120000F0200080F0200080F0200080F0200086B
:1001300000F002F800F04EF80AA090E8000C8244AB
:100140008344AAF10107DA4501D100F043F8AFF288
:10015000090EBAE80F0013F0010F18BFFB1A43F0A5
:100160000103184744DF000064DF0000103A24BF99
:1001700078C878C1FAD8520724BF30C830C144BF0C
:1001800004680C607047000000230024002500264E
:10019000103A28BF78C1FBD8520728BF30C148BFEA
:1001A0000B607047642900F0D780782900F039810E
:1001B000732900F0B383002070471FB500F05CFC8A
:1001C0000400002000210DF05BFD401C60601FBD9D
:1001D00010B510BD00F0C5FC1146FFF7EEFF0CF0A6
:1001E00023FE00F0F1FC03B4FFF7F2FF03BC0AF0BA
:1001F00084FF00000948804709480047FEE7FEE702
:10020000FEE7FEE7FEE7FEE7FEE7FEE7FEE7FEE7C6
:1002100004480549054A064B704700002550000870
:1002200031010008B0690020B06F0020B06B0020E1
:10023000B06B0020EFF3108072B6704780F3108827
:100240007047204C204D25604FF0000484F309884E
:100250001E4C4FF0010525701D4C4FF08055256058
:1002600062B6FEE730B41A4C4FF08055256030BCC2
:10027000704730B4164C4FF08055256030BC704745
:1002800000BF72B6EFF3098028B1203880E8F00F84
:1002900010490968086000B50F4880475DF804EB15
:1002A0000E480F490A7802700A480E490A6802602F
:1002B000106890E8F00F203080F309884EF0040EAB
:1002C00062B6704720ED00E00000FFFFA6000020AE
:1002D00004ED00E0AC000020512A00089B00002043
:1002E0009C000020B4000020704700000FB40449B7
:1002F00010B503AA029800F015FB10BC5DF814FBC2
:100300006400002070B50C460546012A05D0287807
:10031000800600D5EA69002302E0012305E05B1CAA
:10032000934202D2E05C0028F9D1A869E618C01A0D
:10033000A861286A184428622846AFF3008004E0C8
:10034000D5E9012114F8010B9047B442F8D32846AF
:10035000AFF3008070BD00002DE9F0410646002497
:1003600010687529314615A510D0AFF3008000281C
:1003700002DA404212A507E031688A0701D511A5CB
:1003800002E0490704D510A5012401E0AFF3008085
:1003900000210A2306F1240707E0B0FBF3F203FB78
:1003A0001200303078541046491C0028F5D12346FD
:1003B0002A463046BDE8F04100F02CBA00000000AB
:1003C0002D0000002B00000020000000F0B40D46BE
:1003D0000188090502D5214C7C4402E01F4C7C4475
:1003E0000E34002100F1240608E002F00F07120984
:1003F000E75D42EA03721B097754491C52EA03077E
:10040000F3D102780023120704D5702D06D009B16C
:10041000022311342246F0BC00F0FCB90123103451
:10042000F8E770B504460D4621461068AFF300802A
:10043000024629462046BDE870400023C6E7D21D8B
:1004400022F00703D3E90023C0E70368126843F0F2
:10045000200303600823C3610023B7E790DC00009A
:100460002DE9F05F894604464FF0000ADFF874B1C9
:10047000FB44C0F820A02046E1688847002874D0DB
:10048000252806D0D4E901219047206A401C20622B
:10049000F1E700265F462046E168884720280546A8
:1004A00007DB312D05D2781910F8200C08B106436E
:1004B000F1E7B00701D526F00406C4F81CA0002718
:1004C000C4F818A02A2D09D028460AF00FFE38B328
:1004D00004EB8708303DC8F8185019E059F8041BA0
:1004E000204604EB87029161E1688847012F0546A9
:1004F00018D1E069002820DA26F020061DE0D8F89F
:10050000180000EB800005EB40003038C8F81800F8
:100510002046E168884705460AF0E8FD0028EED14C
:10052000012F0AD02E2D08D12046E16888477F1C74
:100530000546022F46F02006C4DBA069002803DA36
:10054000404246F00106A061F00701D026F01006F7
:100550006C2D0BD0682D09D04C2D39D06A2D35D09B
:10056000742D35D07A2D33D016E038E0E1682F466F
:1005700020468847B842054609D16C2F26D04FF453
:100580008060E168064320468847054604E06C2FFA
:100590001AD04FF4807006430DB3A5F1410019281D
:1005A00002D8203546F400664A4629462046266091
:1005B0004E46FFF7F7FD80B101280BD0F61D26F05F
:1005C000070000F1080956E74020E4E78020D8E75B
:1005D0000020D6E706F104094DE7284652E7206AD5
:1005E000BDE8F09F20DC000070B5064600F00EF973
:1005F0000468054630460A22002100F0A5F92C6067
:1006000070BD00F0D9B930B505460B462A4613F83F
:10061000014B12F8010B08B1A042F8D01CB1002820
:1006200002D06D1CF1E7284630BD10B5431C02E036
:1006300010F8011B71B18107FAD14FF0013202C8E5
:100640008C1A8C4314EAC211F9D0C01A0A0603D0DE
:10065000C01E10BDC01A10BD0A0401D0801E10BDFE
:100660000902FCD0401E10BD032A40F2308010F079
:10067000030C00F0158011F8013BBCF1020F62443D
:1006800098BF11F801CB00F8013B38BF11F8013BCE
:10069000A2F1040298BF00F801CB38BF00F8013B7B
:1006A00011F0030300F0AA81083AC0F0088051F865
:1006B000043B083A51F804CBA0E80810F5E7121DF6
:1006C0005CBF51F8043B40F8043BAFF30080D20715
:1006D00024BF11F8013B11F801CB48BF11F8012BE1
:1006E00024BF00F8013B00F801CB48BF00F8012B04
:1006F00070474FF000020429C0F0128010F0030C84
:1007000000F01B80CCF1040CBCF1020F18BF00F804
:10071000012BA8BF20F8022BA1EB0C0100F00DB8B3
:100720005FEAC17C24BF00F8012B00F8012B48BF11
:1007300000F8012B70474FF0000200B513469446B5
:100740009646203922BFA0E80C50A0E80C50B1F129
:100750002001BFF4F7AF090728BFA0E80C5048BF3D
:100760000CC05DF804EB890028BF40F8042B08BFDB
:10077000704748BF20F8022B11F0804F18BF00F8D7
:10078000012B70474FF0013C50F8042B51F8043B0B
:100790009A4221D1A2EB0C03934313EACC1317D155
:1007A00050F8042B51F8043B9A4215D1A2EB0C03EC
:1007B000934313EACC130BD150F8042B51F8043BAC
:1007C0009A4209D1A2EB0C03934313EACC13DBD07A
:1007D0004FF00000704700BFD01A01BAB1FA81F1A2
:1007E00001F0180122FA01F0CB40C1F12001DBB287
:1007F000C0B2C01A2CFA01F3D11A914311EAC31105
:10080000E6D170477047704770477047004870479F
:10081000506900202DE9F0470D469946924604465E
:1008200000F124080168880604D5E06921F0100170
:10083000216000E00120A84201DD471B00E0002705
:10084000A1697A1902EB0900081AA0612078C00694
:1008500002D42046AFF30080002608E0D4E901214D
:100860001AF806009047206A401C761C20624E450C
:10087000F4DB2078C0060AD52046AFF3008006E0FE
:10088000D4E9012130209047206A401C2062381EA4
:10089000A7F10107F4DC07E0D4E9012118F805000D
:1008A0009047206A401C2062281EA5F10105F3DC58
:1008B0002046AFF300802078000602D50220BDE874
:1008C000F0870120FBE7000001694A1C02610878FB
:1008D000704700B58FB0CDE9013100210591054980
:1008E0007944CDE9031011466846FFF7B9FD0FB012
:1008F00000BD0000E5FFFFFF10B5436913B1AFF382
:10090000008001E0FFF7FEFC012010BD127800F12D
:1009100024010A7000224A700122EDE711684FF0AD
:10092000FF32E9E7074B70B50D467B44FFF7D1FF77
:100930000446284600F0F3F810B14FF0FF3070BDC8
:10094000204670BDABC100002DE9F04791460F462F
:1009500080460446002614F8015B2DB100F084F8AF
:100960000068405DC007F6D12B2D02D02D2D18D088
:10097000641E4A463946204600F082F827B139689D
:10098000A14201D1C7F800804FF0020471050BD5D8
:100990004042002803DDFFF739FF0460A007BDE8EF
:1009A000F08746F48066E4E70028F8DAFFF72EFFC8
:1009B00004606FF00040F2E72DE9F04115460E4665
:1009C000040002D12C6804B90BA4204600F0BBF847
:1009D0000444207870B127463146384600F0A3F829
:1009E0000444207810B1002004F8010B38462C6034
:1009F000BDE8F0810027F9E70000000010B5203ABB
:100A0000C0F00B80B1E81850203AA0E81850B1E8C7
:100A10001850A0E81850BFF4F5AF5FEA027C24BF7D
:100A2000B1E81850A0E8185044BF18C918C0BDE874
:100A300010405FEA827C24BF51F8043B40F8043B3D
:100A400008BF7047D20728BF31F8023B48BF11F8F2
:100A5000012B28BF20F8023B48BF00F8012B70474C
:100A6000004870475069002010B500F005F8001DDF
:100A700010BD00BF0DD20000004870477069002013
:100A80002DE9F05F824615468B4600270AF10104E6
:100A9000B9460078302801D09DB113E014F8010B5D
:100AA0000127782803D0582801D045B10AE00DB1BC
:100AB000102D07D1002714F8010B102502E008259E
:100AC00000E00A250026B0460EE005FB080005FB05
:100AD00006F101271FFA80F801EB1046B6F5803FBA
:100AE00000D3B94614F8010B294600F05FF800283E
:100AF000EBDABBF1000F05D00FB1641E00E05446E5
:100B0000CBF80040B9F1000F06D0FFF77FFE0221BD
:100B10000160C81EBDE8F09F48EA0640FAE7007B86
:100B200000F08000704730B503461D781DB10A46BD
:100B300003E0AC4201D1181A30BD12F8014B002C71
:100B4000F7D15B1CF1E730B503461D783DB10A468D
:100B500012F8014B1CB1AC42FAD15B1CF5E7181A34
:100B600030BD7546FFF77CFFAE460500694653462B
:100B700020F00700854618B020B5FFF749FBBDE817
:100B800020404FF000064FF000074FF000084FF0F4
:100B9000000B21F00701AC46ACE8C009ACE8C00985
:100BA000ACE8C009ACE8C0098D4670473A2800D2CD
:100BB000303820F02002412A01D3A2F137008842C8
:100BC00001D34FF0FF3070470446AFF3008020465A
:100BD000FFF709FB00BFFEE710B50021837A012271
:100BE00002FA03F13D4A126842F001023B4B1A60DF
:100BF0003A4A1C3212688A43384B1C331A60027B13
:100C0000CAB9364A0C3212688A43344B0C331A6024
:100C10004288C38842EA0343304A4032847A42F829
:100C200034300288838842EA03432C4A4032847A73
:100C300002EBC4025360027B012A19D1274A0C320D
:100C400012680A43254B0C331A604288038842EA33
:100C50000343224A4032847A42F83430C28883887F
:100C600042EA03431D4A4032847A02EBC4025360D5
:100C7000C27A3AB9194A121D12688A43174B1B1DD2
:100C80001A6006E0154A121D12680A43134B1B1D19
:100C90001A60028932B9114A143212688A430F4B22
:100CA00014331A600289012A06D10C4A14321268E0
:100CB0000A430A4B14331A60427B012A06D1074AC1
:100CC0001C3212680A43054B1C331A60034A12682F
:100CD00022F00102014B1A6010BD000000660040C6
:100CE00030B5024600200023146824F0020414608A
:100CF000146844F00104146000E05B1C546804F0C4
:100D000001041CB94FF6FF74A342F6D1546804F0F5
:100D100001040CB900206CE08C79012C04D114681A
:100D200044F08004146003E0146824F0800414602C
:100D3000CC79012C04D1146844F04004146003E021
:100D4000146824F0400414600C7A012C04D1146857
:100D500044F02004146003E0146824F020041460BC
:100D60004C7A012C04D1146844F01004146003E0A0
:100D7000146824F0100414608C7A012C04D11468D7
:100D800044F00804146003E0146824F008041460BC
:100D9000CC7A012C04D1146844F00404146003E0FC
:100DA000146824F0040414608C78A407CD7844EA15
:100DB00005640D7944EA05444D7944EA05540D88EB
:100DC0006D1E2C43D461146824F0010414600023C8
:100DD00000E05B1C546804F001041CB14FF6FF7482
:100DE000A342F6D1546804F001040CB1002000E0E5
:100DF000012030BD2DE9F04188B004460D4616466D
:100E00001F46DDF838800121042002F0D9F90121C4
:100E1000480602F0B5F94FF48050ADF81C000320ED
:100E20008DF81E0018208DF81F0007A9234800F038
:100E300035FD4FF40060ADF81C0048208DF81F0010
:100E400007A91E4800F02AFD00208DF816008DF835
:100E500017008DF8180001208DF8190000208DF87A
:100E60001A008DF81B008DF812808DF813408DF854
:100E700014608DF81550ADF8107004A91048FFF7F4
:100E80002FFF00208DF80A008DF80B0001208DF84F
:100E90000C000020ADF80000ADF80200ADF8040031
:100EA000ADF80600ADF8080001208DF80D00684689
:100EB000FFF792FE002008B0BDE8F0810008014075
:100EC00000640040002004E00021044A1154411C49
:100ED00088B2B0F5487FF7DB70470000B05B0020B8
:100EE00010B5034801780348FFF703FC10BD00006C
:100EF0005A0000206057002070B500254FF4803460
:100F000004E0802002F082FA00B103E02000A4F1A6
:100F10000104F6D100BF0CB9032070BD40F2FF50B0
:100F200002F02EFA2846F8E770B5044605E01548A9
:100F3000456B05F0450000B100E0F8E700BF042074
:100F400002F064FA20B1042002F01AFA032070BD06
:100F5000012002F05BFA20B1012002F011FA012019
:100F6000F5E708480069A04201D01020EFE740F201
:100F7000FF50044988630846406908210840C0B210
:100F8000E5E700000080014070B500264FF4803591
:100F900005E01148446B04F0450000B103E028006F
:100FA000A5F10105F5D100BF15B104F0040028B189
:100FB0000326042002F0E4F9304670BD012002F05F
:100FC00025FA18B10126012002F0DAF940F2FF50AB
:100FD00002F0D6F93046F0E70080014010B505E098
:100FE0000B48446B04F0450000B100E0F8E700BF97
:100FF000042002F00BFA20B1042002F0C1F9032012
:1010000010BD40F2FF5002F0BBF90020F8E70000ED
:10101000008001402DE9F04105460E464FF00008E2
:1010200005E01F48476B07F0450000B100E0F8E716
:1010300000BF042002F0EAF928B1042002F0A0F970
:101040000320BDE8F081012002F0E0F920B1012089
:1010500002F096F90120F4E711480069A84201D096
:101060001020EEE740F2FF5002F08AF90C48446984
:1010700004F4604018B9200C30804046E1E704F4E5
:10108000005008B11320DCE704F4804008B11020C0
:10109000D7E704F4004008B10F20D2E74046D0E77C
:1010A0000080014070B500264FF4803505E00F4800
:1010B000446B04F0450000B103E02800A5F10105F0
:1010C000F5D100BF15B104F0040028B103260420B7
:1010D00002F056F9304670BD04F0400018B1002609
:1010E000402002F04DF93046F5E700000080014055
:1010F00021B1026842F00102026004E002684FF68A
:10110000FE731A400260704701684FF6FE7211408C
:1011100001600021016041608160C1604B498842EB
:1011200008D14A490839496841F00F01474A083A4D
:1011300051608AE045491431884208D14349083951
:10114000496841F0F001414A083A51607DE03F4969
:101150002831884208D13D490839496841F4706115
:101160003A4A083A516070E038493C31884208D127
:1011700036490839496841F47041344A083A5160A7
:1011800063E032495031884208D130490839496812
:1011900041F470212D4A083A516056E02B496431E0
:1011A000884208D129490839496841F47001274A21
:1011B000083A516049E025497831884208D12349ED
:1011C0000839496841F07061204A083A51603CE0B2
:1011D0001F49884206D1011F096841F00F01021F13
:1011E000116032E01A491431884208D11849091FA8
:1011F000096841F0F001164A121F116025E01449F8
:101200002831884208D11249091F096841F47061E8
:101210000F4A121F116018E00D493C31884208D175
:101220000B49091F096841F47041094A121F1160F6
:101230000BE007495031884207D10549091F096869
:1012400041F47021024A121F1160704708000240E9
:101250000804024010B50022026847F6F0739A4372
:101260000C6A8B6823430C6923434C6923438C69C4
:101270002343CC6923434C6A23438C6A23431A4398
:101280000260CB6843600B6883604B68C36010BD2D
:101290007047000031B50F4809F037FB044600984D
:1012A0002044B0F5803F08D200BF0A4809F02DFB6A
:1012B000001B00998842F8D30AE00021054809F094
:1012C0004AFB00BF034809F020FB00998842F9D38C
:1012D00038BD00000004004010B501F019F90820E5
:1012E00000F05EF820B34FF400701349086000204E
:1012F000124908700021124809F02DFB0121104805
:1013000009F0F7FA00214FF0804009F0F2FA0021CD
:101310004FF0804009F01FFB0121880709F0E9FA2E
:10132000082000F011F807480078401C05490870B3
:1013300001F000F910BD000080E100E0580000203D
:10134000002C01405B00002001490860704700004C
:10135000140401400EB50121084601F031FF0321BC
:10136000042000F07BFA0820019000208DF808008E
:101370000C208DF8090001208DF80A0001A800F06A
:101380001BF809208DF800000F208DF801008DF862
:10139000020001208DF80300684601F055F80EBDEB
:1013A00001460020034A12680A400AB1012000E009
:1013B0000020704714040140002123498279002A4B
:1013C0003AD00A46126803689A430B461A600A1D0F
:1013D000126803689A430B1D1A60027911440A6867
:1013E00003681A430A60184A0832126803689A436D
:1013F000154B08331A601A1D126803689A43124B82
:101400000C331A604279102A0ED11A1F1268036831
:101410001A430D4B08331A601A1D126803681A43E9
:10142000094B0C331A600DE00749427911440A68F0
:1014300003681A430A6005E0027911440A680368E8
:101440009A430A60704700000004014030B504462A
:1014500004254FF4302000F06FF80546042D17D115
:101460000C48006940F002000A49086108464461DE
:10147000006940F0400008614FF4302000F05CF853
:1014800005460448006941F6FD71084001490861BC
:10149000284630BD0020024004200B49C96801F0F5
:1014A000010109B101200EE00749C96801F00401FA
:1014B00009B1022007E00449C96801F0100109B12F
:1014C000032000E004207047002002400348006928
:1014D00040F0800001490861704700000020024090
:1014E00070B504460D460426F00200F025F80646C5
:1014F000042E11D10948006940F001000749086134
:101500002580F00200F018F806460448006941F60C
:10151000FE71084001490861304670BD002002405C
:101520000248034948600348486070472301674503
:1015300000200240AB89EFCD00B502460423FFF73F
:10154000ABFF034603E0FFF7A7FF0346521E012B44
:1015500001D1002AF7D102B90523184600BD0000C9
:1015600051B18200A2F1C042126842F00103820030
:10157000A2F1C042136009E08200A2F1C0421268E9
:10158000034B1A408300A3F1C0431A607047000068
:10159000FEFF0F00D0E901121143C2681143026936
:1015A00011434269114382691143C2691143026ABE
:1015B0001143426A1143826A1143C26A1143026BAA
:1015C000114302689200A2F1C042116081680829AB
:1015D0000BD101688900A1F1C041096841F04002C6
:1015E00001688900A1F1C0410A60416B0968426B42
:1015F000526841EA0211426B926841EA0221426B51
:10160000928941EA0241426B128A41EA0251426BDD
:10161000127D41EA0261426B926911430268521CD9
:101620009200A2F1C0421160C16AB1F5804F1BD196
:10163000816B0968826B526841EA0211826B926881
:1016400041EA0221826B128A41EA0251826B127DC9
:1016500041EA0261826B9269114302689200A2F131
:10166000C042C2F8041107E06FF0704201688900BF
:10167000A1F1C041C1F80421704700002DE9FC41EF
:1016800007460D4600260024002000900190082007
:101690005B49086010204860402088600020C860D6
:1016A0004FF480600861084601F0E6FE1020FFF765
:1016B0003BFC044614B12046BDE8FC81514800883B
:1016C00000044F49086037204860402088600020AF
:1016D000C8604FF480600861084601F0CDFE3720F5
:1016E000FFF722FC04460CB12046E5E74FF0FF303F
:1016F0004549086008204860302088600220C860A2
:101700000020086101204861084601F055FE0020D4
:101710003B49086033204860402088600020C86052
:101720004FF480600861084601F0A6FE3320FFF701
:10173000FBFB04460CB12046BEE70CE04FF4001062
:1017400001F064FE38B101F091FE4DF82600761CE0
:10175000022E00D306E02D48406B40F22A6108407B
:101760000028EBD000BF082001F050FE20B1082077
:1017700001F006FE04209FE7022001F047FE20B1A1
:10178000022001F0FDFD022096E7202001F03EFE40
:1017900020B1202001F0F4FD06208DE74FF4007009
:1017A00001F034FE28B14FF4007001F0E9FD07208C
:1017B00082E740F2FF5001F0E3FD00980006009937
:1017C00001F47F4140EA0120009901F47F0140EAE1
:1017D0001120009940EA11606860019800060199A3
:1017E00001F47F4140EA0120019901F47F0140EAC0
:1017F0001120019940EA1160286020465CE7000052
:1018000018120020180000202C1200200080014037
:1018100008B50121402001F0D3FC04210E4800F05E
:10182000D3F80420ADF8000010208DF80300032049
:101830008DF802006946084800F030F80820ADF83D
:10184000000048208DF8030003208DF8020069464F
:10185000014800F023F808BD0018014030B500220F
:101860008B071C0F0F2303FA04F20B4B8C1053F859
:1018700024309343084C8D1044F8253023468C10B7
:1018800053F824308C07240F00FA04F42343024C4D
:101890008D1044F8253030BD080001402DE9F0419D
:1018A000024600250026002000230024002791F88E
:1018B00003C00CF00F0591F803C00CF0100CBCF144
:1018C000000F03D091F802C04CEA050591F800C062
:1018D000BCF1000F31D0146800202BE04FF0010C58
:1018E0000CFA00F3B1F800C00CEA03069E4220D1C6
:1018F00083004FF00F0C0CFA03F7BC4305FA03FC0E
:101900004CEA040491F803C0BCF1280F06D14FF053
:10191000010C0CFA00FCC2F814C00AE091F803C0F4
:10192000BCF1480F05D14FF0010C0CFA00FCC2F8D5
:1019300010C0401C0828D1D31460B1F800C0BCF11D
:10194000FF0F34DD546800202EE000F1080C4FF04A
:10195000010808FA0CF3B1F800C00CEA03069E4235
:1019600021D183004FF00F0C0CFA03F7BC4305FAAA
:1019700003FC4CEA040491F803C0BCF1280F05D124
:1019800000F1080C08FA0CF8C2F8148091F803C0B2
:10199000BCF1480F07D100F1080C4FF0010808FA1C
:1019A0000CF8C2F81080401C0828CED35460BDE863
:1019B000F0810246002093680B400BB1012000E04B
:1019C0000020704741617047016170472DE9F04187
:1019D00004460F4615460026FFF774FA0BE000BFD9
:1019E0004021164809F034F90028F9D0217813482D
:1019F00009F0FBF9641C20780028F0D110A008F051
:101A0000FFFF15B93046BDE8F08100200D49087090
:101A10000D48057001200D49087007E039460C4853
:101A2000FEF7F1FD08B9012600E00026074800781E
:101A300030400028F2D13046E5E700000044004085
:101A40000D0A0000600000205F0000205D00002003
:101A5000B05B002000BFFEE772B6704762B6704709
:101A60001CB5044600200190009021480088000425
:101A7000204908600D204860402088600020C86030
:101A80004FF480600861084601F0F6FC1A48406B8C
:101A9000009002E01848406B0090009800F045006C
:101AA0000028F7D0012001F0B1FC20B1012001F0A5
:101AB00067FC01201CBD042001F0A8FC20B104201B
:101AC00001F05EFC0320F5E70B4800690D2801D00A
:101AD0001020EFE740F2FF5001F052FC0648406949
:101AE00001900198C0F3432020700020E2E700003D
:101AF00018000020181200200080014010B50120BD
:101B00000B4908700BA0FEF7F1FB08E00FA111488C
:101B1000FEF779FD18B1FFF7E3F90BF005FB044878
:101B200000780628F2DD00200149087010BD000091
:101B30005E000020C4FAD3D03573D6D3BDF8C8EB0D
:101B4000B9A4B3A7C4A3CABD0A000000B9A4B3A72F
:101B5000000000006057002070B5044600261748BA
:101B60000588408845431548808846F60401884228
:101B700016D112488079012812D100200F498871AE
:101B80002A2048812B2088810021084600F0B0FAE5
:101B900001200A4988712B2048812A20888103E08E
:101BA0000021084600F0A4FA00F082FB002602E0C3
:101BB00003480480761CAE42FAD370BDC0140020E6
:101BC0000008006C10B50446002C66D16C49887181
:101BD000F02008804FF4A07048800846808849F2C1
:101BE000413188420BD06648808846F6040188421D
:101BF00005D06348808845F2103188421AD12C20E4
:101C00005F4908812A2048812B20888108468088E6
:101C100046F60401884205D05948808845F21031C3
:101C2000884206D14FF4A070554908804FF4F070F7
:101C30004880A1E05248808845F21051884210D176
:101C40004FF430504E4908814FF4285048814FF4EA
:101C50002C5088814FF4F07008804FF44870488011
:101C60008AE04748808841F6631188420DD12C20D4
:101C7000434908812B2048812A2088814FF4F07045
:101C800008804FF44870488076E022203C49088163
:101C900020204881212088816EE001203849887108
:101CA0004FF4A0700880F02048800846808849F2F0
:101CB0004131884205D03248808845F2103188424F
:101CC00007D12C202E4908812A2048812B20888189
:101CD0003FE02B48808846F60401884207D12C203B
:101CE000274908812B2048812A20888131E0244817
:101CF000808845F21051884210D14FF4305020496D
:101D000008814FF4285048814FF42C5088814FF4BB
:101D1000487008804FF4F07048801AE018488088B6
:101D200041F6631188420DD12C20154908812A20E3
:101D300048812B2088814FF4487008804FF4F07060
:101D4000488006E022200E49088121204881202079
:101D500088810B48808846F60401884205D00848EF
:101D6000808845F21031884206D14FF4F070044962
:101D700008804FF4A0704880002000F043F810BDA8
:101D8000C014002008B5034800880090BDF800008A
:101D900008BD00000008006C10B50446204600F0A5
:101DA00081FA052009F090FBFFF7ECFF10BD000061
:101DB0002DE9F0470446BE2000F074FA052000F03B
:101DC0006BFA20460BF09FFF07464FF066320C4B34
:101DD0000BF0ACFF05460BF069FF1FFA80F948468F
:101DE00000F05AFA012000F057FAFF2000F054FAF0
:101DF000002000F051FA002000F04EFABDE8F08714
:101E00006666044070B5044600230026B748807912
:101E100001280BD1B548808846F60401884205D0D8
:101E2000B248808841F66311884208D1AF48807972
:101E3000F0B9AE48808841F66311884218D1082C69
:101E400015D2DFE804F00406080A0C0E101206246E
:101E50000DE007240BE0042409E0052407E0012439
:101E600005E0002403E0032401E0022400BF00BFDA
:101E70009E48808849F24131884217D09B4880882B
:101E800046F60401884211D09848808845F2103106
:101E900088420BD09548808845F21051884205D081
:101EA0009248808841F6631188427DD1082C1CD26B
:101EB000DFE804F00406090C0F12151800BF14E047
:101EC00043F0800311E043F040030EE043F0C00311
:101ED0000BE043F0200308E043F0600305E043F02B
:101EE000A00302E043F0E00300BF00BF7F4880880A
:101EF00045F21051884202D14FF4585600E0362680
:101F00007A48808845F2103188420DD07748808821
:101F100045F21051884207D07448808841F6631119
:101F2000884201D043F008037048808846F60401D7
:101F3000884201D143F002031946304600F0C2F94D
:101F40006A48808841F6631188421DD003F0200062
:101F500068B16648008865494988884214DA634850
:101F60000588408861490880084645800CE05F4844
:101F700000885E494988884206DD5C4805884088BB
:101F80005A490880084645805848808845F21051D3
:101F9000884254D15549488900F084F9002000F066
:101FA0007BF95249498900E078E0491C88B200F089
:101FB00079F9002000F070F94C494989891C88B2F0
:101FC00000F070F949490988491EC1F30F2000F05B
:101FD00063F946494989C91C88B200F063F943494D
:101FE0000978491EC8B200F057F94049888900F0C5
:101FF00059F9002000F050F93C498989491C88B200
:1020000000F050F9002000F047F938498989891C0F
:1020100088B200F047F935494988491EC1F30F20BD
:1020200000F03AF931498989C91C88B200F03AF9BF
:102030002E498978491EC8B200F02EF955E02B4987
:10204000488900F02FF9002000F026F9002000F068
:1020500023F926490988491EC1F30F2000F01CF915
:1020600022490978491EC8B200F016F91F4988892B
:1020700000F018F9002000F00FF9002000F00CF932
:102080001A494988491EC1F30F2000F005F9174984
:102090008978491EC8B200F0FFF826E0082C1CD24F
:1020A000DFE804F004070A0D0F12151843F030039F
:1020B00013E043F0100310E043F020030DE000BFF5
:1020C0000BE043F0380308E043F0280305E043F059
:1020D000180302E043F0080300BF00BF032643F4E7
:1020E00080531946304600F0EDF870BDC014002052
:1020F00010B503460C466748808849F24131884252
:1021000005D06448808845F21031884214D1614975
:10211000488900F0C7F8181200F0BEF8D8B200F0F5
:10212000BBF85C49888900F0BDF8201200F0B4F8D3
:10213000E0B200F0B1F8ABE05648808846F6040102
:1021400088421DD153488079012804D15148008824
:10215000401EC01A83B24F49488900F0A3F81812F4
:1021600000F09AF8D8B200F097F84A49888900F050
:1021700099F8201200F090F8E0B200F08DF887E0B6
:102180004448808841F66311884247D141488079AC
:10219000A8B940480088401EC01A83B23D4948890A
:1021A00000F080F8002000F077F8002000F074F8CC
:1021B000181200F071F8D8B200F06EF816E0354948
:1021C000488900F06FF8181200F066F8D8B200F0F5
:1021D00063F830490988491EC1F30F2000F05CF80C
:1021E0002C490978491EC8B200F056F82949888957
:1021F00000F058F8201200F04FF8E0B200F04CF870
:1022000024494988491EC1F30F2000F045F82149AF
:102210008978491EC8B200F03FF839E01D4880882F
:1022200045F21051884220D11A49488900F03AF805
:10223000181200F031F817494989491C88B200F09A
:1022400031F8D8B200F028F81249888900F02AF84D
:10225000201200F021F80F498989491C88B200F04A
:1022600021F8E0B200F018F812E00A48807901285D
:1022700004D108480088401EC01A83B20549488925
:10228000194600F01FF803498889214600F01AF822
:1022900010BD0000C01400200149088070470000F4
:1022A0000008006C0149088070470000FE07006CC0
:1022B000024800890249088070470000C0140020CD
:1022C000FE07006C024A1080921C118070470000CB
:1022D000FE07006C08B50121082000F071FF1820EE
:1022E000ADF8000048208DF8030003208DF80200AF
:1022F00069460448FFF7D2FA18210248FFF762FB4B
:1023000008BD0000000C014000BFFEE7704708B5A3
:1023100000214FF0006000F0D9F84FF4A06000F009
:10232000CBF825208DF8000000208DF80100032057
:102330008DF8020001208DF80300684600F084F853
:1023400026208DF8000002208DF801008DF8020093
:1023500001208DF80300684600F076F809208DF81A
:10236000000003208DF8010000208DF802000120FC
:102370008DF80300684600F067F814208DF800001F
:1023800002208DF8010000208DF8020001208DF858
:102390000300684600F058F831208DF80000002056
:1023A0008DF801008DF8020001208DF803006846C9
:1023B00000F04AF819208DF8000000208DF8010087
:1023C00001208DF802008DF80300684600F03CF80B
:1023D0001C208DF8000001208DF8010000208DF8F0
:1023E000020001208DF80300684600F02DF81E2041
:1023F0008DF8000000208DF8010002208DF8020009
:1024000001208DF80300684600F01EF832208DF898
:10241000000001208DF801008DF802008DF8030006
:10242000684600F011F836208DF8000002208DF883
:10243000010003208DF8020001208DF8030068469A
:1024400000F002F808BD000070B5002100230F2243
:10245000C47804B3154C246804F4E064C4F5E06463
:10246000210AC1F10403CA40447804FA03F18478D4
:102470001440214309010E4C0678A155047804F05C
:102480001F050124AC4005786D11AD0005F1E02574
:10249000C5F8004109E0047804F01F050124AC40B0
:1024A000044D0678761145F8264070BD0CED00E02D
:1024B00000E400E080E100E002490143024A1160CB
:1024C000704700000000FA050CED00E0024A0A40E7
:1024D0000243024B1A60704780FFFF1F08ED00E0C7
:1024E00010B500F013F800F0BFFB00F0E7FB00F0C0
:1024F00007FC00F08FFB00F061FB00F09BFC00F09C
:102500003FFC00F065FC00F002F810BD704770471A
:1025100006480078012808D105480078FF2804D231
:1025200003480078401C024908707047A60000204C
:102530009900002010B500241A480078012830D1F5
:10254000FDF778FE04461848007820B11648007858
:10255000401E1549087014480078F8B913480078EF
:10256000E0B900F0C9FC12481249097850F821007E
:10257000114908600F4800781049097888420DD049
:102580000D480068806B401C0B49096888630C4843
:102590000068401C0A490860FDF76BFE2046FDF705
:1025A0004DFE10BDA6000020990000209A000020DA
:1025B000E86300209C000020B40000209B00002065
:1025C0008000002010B500240B480078012811D1AC
:1025D000FDF730FE04460948007840B90848007805
:1025E000FF2804D206480078401C054908702046A0
:1025F000FDF724FE10BD0000A60000209900002079
:102600009A00002010B5002413480078012821D139
:10261000FDF710FE044611480078C0B10F4800785D
:10262000401E0E4908700846007860B90C480078D2
:1026300028B92046FDF702FE00F024FC0AE02046FF
:10264000FDF7FCFD06E02046FDF7F8FD02E0204620
:10265000FDF7F4FD10BD0000A60000209A00002048
:102660009900002010B50B48007890B900F044FCA8
:10267000094800780949087009480749097850F85D
:102680002100084908600846006807490860FDF70E
:10269000D8FD10BDA60000209C0000209B0000205B
:1026A000E8630020B4000020AC0000207047000068
:1026B0002DE9FE4F06460F4690461C464FF0000996
:1026C000FDF7B8FD81461F48007828B14846FDF760
:1026D000B5FD3C20BDE8FE8F1B4850F8240060BBD0
:1026E0000120194941F824004846FDF7A7FD0023C1
:1026F00042463946304600F009F9824600200090F3
:1027000001900346024651460290204600F00AFC22
:10271000054635B90D48007801280CD100F0B2FB10
:1027200009E0FDF787FD81460020074941F82400B4
:102730004846FDF783FD2846CCE74846FDF77EFD79
:102740002820C7E799000020E8630020A6000020A9
:102750002DE9F04F85B081468A4693461C46DDE957
:102760000F78129D00200390FDF764FD039023482D
:10277000007830B10398FDF761FD3C2005B0BDE85D
:10278000F08F1F4850F8240088BB01201C4941F8F5
:1027900024000398FDF752FD2A464146384600F0D2
:1027A000D1FC2B465A465146484600F0AFF80490FB
:1027B0001198CDE9008002953A4620460E9B049977
:1027C00000F0B0FB064636B90E48007801280CD15F
:1027D00000F058FB09E0FDF72DFD039000200849AB
:1027E00041F824000398FDF729FD3046C6E7FFE7CE
:1027F0000398FDF723FD2820C0E700009900002082
:10280000E8630020A6000020704770472DE9F041E2
:1028100006460F4614464FF000081548007818B1D8
:1028200012202070BDE8F081FDF704FD8046FF2EE8
:1028300003D11048006890F832600F4850F82650D5
:102840002DB94046FDF7FAFC43202070EAE7012D40
:1028500005D14046FDF7F2FC43202070E2E7EF642B
:102860004046FDF7EBFC0020207000BFDAE70000D7
:1028700099000020AC000020E863002070470000B1
:102880002DE9F04707460D464FF0000A002028606A
:102890006860FDF7CFFC8246FF2F03D1194800681E
:1028A00090F83270184850F827402CB95046FDF780
:1028B000C5FC4320BDE8F087012C04D15046FDF74C
:1028C000BDFC4320F6E7207C00F0010020B9504613
:1028D000FDF7B4FC4520EDE70026D4F80C90D4F8C1
:1028E00008805046FDF7AAFC00E0761C58F8041B4F
:1028F0000029FAD0B0002860A9EB060080006860CB
:102900000020D7E7AC000020E863002070B5044643
:1029100010464FF080750560051F28462C606FF04B
:102920000106051F28462E604FF01236051F284667
:102930002E604FF00336051F28462E604FF00236FA
:10294000051F28462E607610051F28462E60051F9D
:10295000284629604FF01136051F28462E604FF09B
:102960001036051F28462E604FF00936051F2846F1
:102970002E604FF00836051F28462E604FF00736B0
:10298000051F28462E604FF00636051F28462E608C
:102990004FF00536051F28462E604FF00436051F00
:1029A00028462E6070BD00002DE9F04105464FF02D
:1029B0000008FDF73FFC8046FF2D05D12048006848
:1029C00090F83250012608E01D48006890F8320067
:1029D000A84201D1012600E000261A4850F82540FF
:1029E0002CB94046FDF72AFC4820BDE8F081012CB7
:1029F00004D14046FDF722FC4320F6E794F83470FA
:102A00001148C05D94F8351088430F49C8550846F1
:102A1000C05D30B994F836100C48007888430B49F3
:102A2000087094F8300040F0080084F83000404608
:102A3000FDF704FC012E01D100F024FA0020D4E7B8
:102A4000AC000020E86300209E0000209D000020D4
:102A50007047000070B5054600261748007800B1A1
:102A600070BD1648007800B1FAE71DB3FDF7E2FB30
:102A700006461348006890F834401248005D10493B
:102A8000096891F8351088430E4908550846005DDD
:102A900040B90B48006890F836100B48007888431E
:102AA0000949087006480068C5623046FDF7C6FB54
:102AB00000F0E8F900BFD3E7990000209A00002059
:102AC000AC0000209E0000209D00002070B5002674
:102AD00000F072F8FDF7AEFB064631480068401C76
:102AE0002F4908603046FDF7A9FB2E4800780128E1
:102AF00053D12D48007820B1012804D0022809D1F3
:102B000003E001250BE0002509E00125012026490D
:102B1000087004E0012500202349087000BF00BFB1
:102B200005B970BD2148046833E0FDF783FB064614
:102B3000E06A50B3E06A401EE062E06A28BB94F8A5
:102B4000300000F0370040B114F8300F00F0C8003A
:102B5000207001206070303C02E0002084F83100D9
:102B600094F8300000F0080078B93434A0781049A7
:102B7000097808430E49087020780E49085C61788E
:102B8000084314F834190B4A505464693046FDF771
:102B900055FB94F832003F28C7D100BFC1E70000C1
:102BA000C4000020A6000020BC000020B8000020C7
:102BB0009D0000209E000020704700002DE9F0419C
:102BC0005021114800F02CF900250DE0681C86B258
:102BD0000D4800EB051400EB06170020207067601D
:102BE0000AA0E060681C85B2042DEFD3064800EB14
:102BF000051400202070606004A0E06002480449D1
:102C00000860BDE8F0810000985F00203F000000F0
:102C10008800002070B5C821114800F001F9002398
:102C20000FE0581C85B203EB83000D4901EB8004D3
:102C300005EB850001EB8006002020706660581CC3
:102C400083B2092BEDD303EB8300054901EB80042C
:102C500000202070606008460249086070BD0000D6
:102C6000D05E00208400002000200A4908600A4944
:102C700008700A4908700A4908700A4908700A4928
:102C800008600A4908600A4908600A4908600A4958
:102C900008707047C4000020990000209A000020AE
:102CA000A7000020A600002080000020A80000202F
:102CB00094000020900000209800002000210A4A83
:102CC0001170002004E00021084A1154411CC8B2D0
:102CD0000828F8D30021064A1170064A1170064AE6
:102CE0001160064A116070479D0000209E00002080
:102CF0009B0000209C000020B4000020AC000020BD
:102D000070B54FF47C71194800F08AF84FF4807167
:102D1000174800F085F8002413E0601CC5B2C4EB2E
:102D2000C40000EB4000114901EB8003C5EBC50076
:102D300000EB400001EB80065E610EA0D864601CD1
:102D4000C4B20B2CE9D3C4EBC40000EB400007492C
:102D500001EB80030020586106A0D86400200649DA
:102D6000086002480549086070BD0000E864002062
:102D7000E86300203F000000B8000020B000002001
:102D800000B587B00320002180220A4BCDE9013233
:102D9000CDE903104FF6FF703F23074A0090074824
:102DA000FFF7D6FC06AA06A13F20FFF72FFD07B0CC
:102DB00000BD0000E8610020E463002059300008F5
:102DC00075432F4F532D49492049646C650000001D
:102DD00000B587B00320002180220A4BCDE90132E3
:102DE000CDE903104FF6FE703E23074A00900748D6
:102DF000FFF7AEFC06AA06A13E20FFF707FD07B0CD
:102E000000BD0000E85F0020E46100208130000880
:102E100075432F4F532D49492053746174000000AE
:102E200004E0002200F8012B4A1E91B20029F8D1DB
:102E3000704700002DE9F04178211048FFF7F0FFBE
:102E400000240DE0601C86B204EB44000B4901EB4A
:102E5000C00506EB460001EBC0072F60601C84B282
:102E6000042CEFD304EB4400044901EBC00500201F
:102E70002860084602490860BDE8F081D868002053
:102E8000C000002010B50024FDF7D4F90446134813
:102E90000078F8B912480078E0B900F02DF8114830
:102EA0001149097850F82100104908600E4800784F
:102EB0000F49097888420DD00C480068806B401C8F
:102EC0000A49096888630B480068401C0949086082
:102ED000FDF7C8F92046FDF7B1F910BD99000020B3
:102EE0009A000020E86300209C000020B40000202D
:102EF0009B000020800000200649074A1278885C69
:102F00000649095C034A515C01EBC001044A117097
:102F10007047000040DF00089D0000209E00002058
:102F20009C0000202DE9F84F05460F469046994633
:102F3000DDE90AAB00200090FDF77CF900903F48E6
:102F40000468002C74D0183454F8040C3B49086011
:102F50000098FDF773F944F8187CA57600202076D8
:102F60006076606144F814BC44F80CAC44F8108CF2
:102F70000C9824F8080C24F8069C0020E077E81050
:102F8000207705F00700E076217F01208840A077B8
:102F9000E17E01208840607700206060E060A060F2
:102FA0002062A0626062E062206325A06063183C3A
:102FB000002606E0002104F1500040F82610701CA5
:102FC000C6B2002EF6D02046FFF770FB2046FFF772
:102FD0001BFCFDF72FF900901A4840F825401A48CD
:102FE000006860610020A0611748006810B11648B1
:102FF00000688461144804603434A0781349097867
:1030000008431249087020781149085C6178084328
:1030100014F834190E4A50540E480078401C0D49DB
:1030200008700098FDF70AF90020BDE8F88FFFE767
:103030000098FDF703F94220F7E70000B0000020F8
:103040003F000000E8630020B80000209D00002041
:103050009E000020A7000020002400BF00BFFDF755
:10306000E9F8044605480068401C04490860204609
:10307000FDF7E4F8FFF7C9FBF1E70000A800002026
:10308000002400BF02E02820FFF7E4FC1948007884
:103090000028F8D0184800686421B0FBF1F0164908
:1030A00008600846006828B9002014490870FF200D
:1030B000FFF77AFC00BFFDF7BDF804461048006832
:1030C0001049086000200E4908602046FDF7B6F858
:1030D0000C48006808490968B0FBF1F0C0F16400D1
:1030E00006490870FFF7CAFB00F00EF81420FFF73E
:1030F000B1FCE0E798000020900000208C00002048
:10310000A8000020940000207CB5002514E069464A
:103110002846FFF7B5FB064666B9094850F8254032
:1031200044B1012C06D0D4E9020100EB81006064B7
:103130000198A064681CC5B23F2DE8D97CBD000091
:10314000E863002002F0010343B102F002032BB157
:1031500002E0491E002308C00029FAD17047000090
:1031600029B1064A52690243044B5A6104E0034AFA
:1031700052698243014B5A617047000000100240BF
:1031800029B1064AD2690243044BDA6104E0034ADA
:10319000D2698243014BDA6170470000001002409F
:1031A00029B1064A12690243044B1A6104E0034A3A
:1031B00012698243014B1A617047000000100240FF
:1031C00029B1064A92690243044B9A6104E0034A1A
:1031D00092698243014B9A617047000000100240DF
:1031E00029B1064AD2680243044BDA6004E0034A7C
:1031F000D2688243014BDA60704700000010024041
:1032000030B500210022002400232D4D6D6805F00B
:103210000C0121B1042905D0082923D105E0294D4D
:10322000056022E0274D05601FE0254D6D6805F41F
:103230007012234D6D6805F48034022505EB92422F
:103240001CB9214D554305600BE01D4D6D6805F41B
:1032500000351DB11C4D5543056002E0194D554325
:10326000056002E0174D056000BF00BF144D6D689A
:1032700005F0F0010909154D6B5C0568DD404560FE
:103280000F4D6D6805F4E061090A104D6B5C4568EF
:10329000DD4085600A4D6D6805F46051C90A0B4D2B
:1032A0006B5C4568DD40C560054D6D6805F44041C7
:1032B000890B074D6B5CC568B5FBF3F5056130BD47
:1032C0000010024000127A0000093D006C0000204E
:1032D0007C0000207CB50546002400200090019071
:1032E00000260DB1022600E000262248406900F0C9
:1032F000007008B10E207CBD1F49098888B269465C
:10330000FEF7BCF904460CB12046F4E7019800F43E
:10331000802060B3184800880004184908603720EE
:103320004860402088600020C8604FF480600861D9
:10333000084600F0A1F83720FDF7F6FD04460CB171
:103340002046D8E70D48066006200C49486040201A
:1033500088600020C8604FF480600861084600F073
:103360008BF80620FDF7E0FD04462046C3E7252044
:10337000C1E7000000800140180000201812002062
:1033800001498863704700000080014001490860DE
:1033900070470000A00030420146034A506820F008
:1033A000FF000843506070470080014001490860F9
:1033B000704700008C05304200210A4B02685A62B7
:1033C00042689A621A46D16A21F0F701D0E90223D5
:1033D0001A4303691A4343691A431143014AD162EC
:1033E00070470000008001400020064908604860E6
:1033F0008860C86048628862C862034888630020A9
:10340000C863704700800140FF07C00001460020EC
:10341000034A526B0A400AB1012000E000207047C5
:10342000008001400248006800F00300704700007F
:103430000080014010B500F037FC10BD00210A4AA1
:10344000516847F6FF629143027D83681A434368DF
:103450001A43C3681A4303681A4303691A431143A2
:10346000014A516070470000008001400148006837
:1034700070470000808001400021094B02689A607B
:103480001A46D1686FF30A01D0E901231A43C368D1
:103490001A4303691A431143014AD160704700007F
:1034A000008001400549096821F00301034A1160C9
:1034B0001146096801431160704700000080014017
:1034C00001490860704700008080014070B58CB0F1
:1034D00006460C46154601210220FFF741FE13481F
:1034E000FDF712FE00211148FDF702FE1048019081
:1034F00002960395A0080490002005908020069075
:103500008000079080000890002009904FF4005040
:103510000A9000200B9001A90448FDF79BFE0021B2
:103520000248FDF7E5FD0CB070BD00004404024008
:103530008080014070B504460025164800780328B5
:1035400001D1272070BD1348007838B111480078A8
:10355000012803D00F480078022818D1022C01D38B
:103560002720EFE7E0B2FFF7B5FE05467DB90A4830
:10357000406820F4C0500849486008464068A1B23D
:1035800040EAC1200449486008464068486028462F
:10359000D8E700001400002000800140F0B501468B
:1035A00000200022BE4B1B7881F85630BD4B1B8893
:1035B000A1F85430BC4B1B681A0E93090B70C2F370
:1035C00083034B7002F003038B70B74B1B68C3F38C
:1035D0000742CA70B44B1B88C3F307220A71B24B6F
:1035E0001A784A715B681A0E1301CB80AE4B5B6888
:1035F000C3F30742CB8843EA1213CB8002F00F03D8
:103600000B72A94B9B88C3F30722D3094B72C2F3F9
:1036100080138B72C2F34013CB72C2F300130B738F
:1036200000234B739E4B1B783BB19D4B1B78012BAA
:1036300003D09B4B1B78032B4FD193071B0D0B61C2
:10364000994B1A790B6943EA82030B61964B9B688D
:103650001A0E0B6943EA92130B61C2F3C2030B7596
:1036600002F007034B75904B9B68C3F30742530965
:103670008B75C2F38203CB7593075B0F0B768A4B76
:103680001B89C3F307220B7E43EAD2130B760B6927
:103690005B1C0024C1E912340B7E9B1C012404FA3C
:1036A00003F3DC17D1E91256A5FB037C06FB03C329
:1036B00005FB0433C1E912730C7A0123A3400B65A7
:1036C0000024D1E912650B6DA6FB037C05FB03C347
:1036D00006FB0433C1E912732EE0714B1B78022BF9
:1036E0002AD1714B1A7993069B0A0B616E4B9B682A
:1036F0001A0E0B6943EA02230B616B4B9B68C3F301
:1037000007420B6913430B61674B1B89C3F3072205
:103710000B695B1C4FF40074A3FB04464FF48063F9
:103720000025A4FB037C06FB03C304FB0533C1E9AE
:1037300012734FF400730B65C2F3801301F8193F45
:1037400093065B0E4B70584B1A7A4B7843EAD213B0
:103750004B7002F07F038B70534BDB681A0ED3095A
:10376000CB70C2F341130B71C2F382034B71930709
:103770001B0F8B714C4BDB68C3F307428B7943EA19
:1037800092138B71C2F34013CB7100230B7202F0C2
:1037900001034B72444B9B89C3F30722D3098B72FD
:1037A000C2F38013CB72C2F340130B73C2F3001346
:1037B0004B73C2F381038B7302F00303CB733A4B59
:1037C0001A7B53080B7401234B74384B1B681A0E79
:1037D000CA741939354B1B68C3F307421402CC85F0
:1037E000324B1B88C3F30722CB8D1343CB852F4B62
:1037F0001A7814060C635B681A0E0B6B43EA0244DA
:103800000C632A4B5B68C3F307420B6B43EA022449
:103810000C63264B9B88C3F307220B6B13430B638C
:10382000224B1A7934235A54204B9B681A0E3523A5
:103830005A541E4B9B68C3F3074214068C631B4B00
:103840001B89C3F307228B6B43EA02448C63174B3B
:103850001A7A8B6B43EA02248C63144BDB681A0ED2
:103860008B6B13438B63114BDB68C3F307423C2321
:103870005B5C43EA12143C235C5413071C0DCC8799
:103880000A4B9B89C3F30722CB8F1343CB87074B8C
:103890001A7B540840235C54012441235C54F0BD3E
:1038A00014000020180000204412002054120020B0
:1038B00038B50025002401213020FFF781FC0121CB
:1038C00040F20240FFF74CFC4FF4F850ADF8000016
:1038D00018208DF8030003208DF802006946224865
:1038E000FDF7DCFF0420ADF8000018208DF8030080
:1038F00003208DF8020069461C48FDF7CFFFFFF753
:1039000073FD00F0E3F8044614B900F035F80446FE
:103910001CB91748FFF742FE044634B91449B1F800
:103920005410080400F04AFD04461CB90120FFF7BA
:1039300001FE04461CB10F480078032812D10C4840
:1039400090F8560020B10A4890F85600012801D19D
:103950000E2500E008252846FFF71EFD002000F098
:1039600045FD0446204638BD0010014000140140CA
:10397000681200201400002038B5002401200090B7
:10398000FFF750FD08B9252038BD4A4800780428C3
:1039900021D000204849086002204860C02088608B
:1039A0000020C8604FF4806008610846FFF764FD9E
:1039B000FDF7EAFA04460CB12046E5E73F484069C6
:1039C0003F4908603D48806948603C48C06988605C
:1039D0003A48006AC8603748007858B135480078DE
:1039E000012807D033480078062803D031480078F2
:1039F000022816D10020304908600320486040208A
:103A000088600020C8604FF4806008610846FFF7B6
:103A100033FD69460320FDF7FDFA04460CB120464C
:103A2000B2E724480078032816D1BDF8000000044E
:103A30002149086003204860402088600020C86059
:103A40004FF4806008610846FFF716FDFDF79CFA09
:103A500004460CB1204697E716480078042827D082
:103A6000BDF8000017490860BDF8000000041249C5
:103A7000086009204860C02088600020C8604FF4BA
:103A8000806008610846FFF7F7FCFDF77DFA044601
:103A90000CB1204678E7094840690B49086007489F
:103AA000806948600548C06988600448006AC86049
:103AB000002069E714000020181200200080014057
:103AC0005412002018000020441200202DE9F04775
:103AD0000027002400260025A046A146B2206C49FC
:103AE00008750020086048608860C8600861084662
:103AF000FFF7A4FC0320FFF7D5FC0120FFF746FCED
:103B000000BF12E000206349086048608860C86018
:103B10004FF4806008610846FFF7AEFCFDF7ECF952
:103B2000044604B903E0781CC7B24A2FEADB00BFA1
:103B300014B12046BDE8F0874FF4D57055490860B0
:103B400008204860402088600020C8604FF48060F2
:103B500008610846FFF790FCFDF7A4FA044624B973
:103B600001204D4908704FF0804900204949086004
:103B700037204860402088600020C8604FF4806093
:103B800008610846FFF778FC3720FDF7CDF90446B9
:103B9000002C4BD134E000203E49086037204860BB
:103BA000402088600020C8604FF4806008610846AB
:103BB000FFF762FC3720FDF7B7F904460CB1204649
:103BC000B8E7364849EA00003249086029204860D1
:103BD000402088600020C8604FF48060086108467B
:103BE000FFF74AFCFDF7FAF904460CB12046A1E7BD
:103BF0002B484669012080EAD67080F001086D1CD0
:103C0000B8F1000F03D14FF6FF708542C3D34FF6D2
:103C1000FF70854202D31B2420468BE706F08040CC
:103C2000060032D002201C4908702EE01CE01D481E
:103C30001849086001204860402088600020C86062
:103C40004FF4806008610846FFF716FCFDF7C6F9DF
:103C500004460CB120466DE711484669012080EA10
:103C6000D67080F001086D1CB8F1000F03D14FF63B
:103C7000FF708542DBD34FF6FF70854202D31B24D1
:103C8000204657E7032004490870204652E7000009
:103C900000120020181200201400002000001080E4
:103CA000008001400080FF8010B54948406B00F45F
:103CB000807070B347480078012814D1002046492D
:103CC00008600C204860402088600020C8604FF4E5
:103CD000806008610846FFF7CFFB0C20FDF724F950
:103CE0003E49087002E000203C4908703848806B6B
:103CF00040F48070364988630846C06B4CF23A3114
:103D000088433349C8630120354908703348007837
:103D100010BDFFE70220FFF779FB68B10220FFF733
:103D20002FFB2B48C06B4CF23A3188432849C863BB
:103D300002202A490870EBE70820FFF767FB68B10B
:103D40000820FFF71DFB2248C06B4CF23A31884334
:103D50001F49C863042021490870D9E72020FFF7D4
:103D600055FB68B12020FFF70BFB1948C06B4CF2E4
:103D70003A3188431649C863062018490870C7E7D6
:103D80001020FFF743FB68B11020FFF7F9FA104845
:103D9000C06B4CF23A3188430D49C86305200F4986
:103DA0000870B5E74FF40070FFF730FB70B14FF4C7
:103DB0000070FFF7E5FA0648C06B4CF23A318843D1
:103DC0000349C863072005490870A1E700209FE761
:103DD000008001401D000020181200201E0000205D
:103DE0001F0000202DE9F84F8146174698460A9C8F
:103DF0004FF0000AD3464D464FF0FF36B9F1000FA1
:103E000002D12620BDE8F88F00208249C86282488E
:103E10000078022805D10402780A40EAC8574FEA20
:103E2000682800207D4988604860401E08600120A5
:103E300048610020C86008610846FFF7BDFA754870
:103E4000406900F0007008B10E20DBE7002C21DD96
:103E5000B4F5006F1EDC601E2040D8B9204607F084
:103E6000AEF900906E48046010206D494860402013
:103E700088600020C8604FF4806008610846FFF742
:103E8000FBFA1020FDF750F88246BAF1000F03D07C
:103E90005046B7E72620B5E7009800015F498860E3
:103EA000084644604FF0FF3008600120486102205E
:103EB000C860002008610846FFF77EFA584807608E
:103EC000112057494860402088600020C8604FF4A6
:103ED000806008610846FFF7CFFA1120FDF724F84B
:103EE0008246BAF1000F01D050468BE74D4800786A
:103EF00000285AD1FDF7B0FD18E04FF40040FFF75D
:103F000085FA78B14FF0000B06E042488030006837
:103F100045F82B000BF1010BBBF1080FF5D3203551
:103F2000414E03E00EB904206CE7761E3948406B21
:103F300040F22A6108400028DFD00820FFF766FA27
:103F400020B10820FFF71CFA04205BE70220FFF7EE
:103F50005DFA20B10220FFF713FA022052E7202079
:103F6000FFF754FA20B12020FFF70AFA062049E7AC
:103F70004FF40070FFF74AFA28B14FF40070FFF7D2
:103F8000FFF907203EE703E0FFF770FA28602D1DD8
:103F90004FF40010FFF73AFA0028F5D1FDF75EFD67
:103FA00040F2FF50FFF7ECF931E01E48007801289D
:103FB0002DD1002221464846FFF788FA00201B49F0
:103FC00008701B4908701B4908701248C06B40F20A
:103FD0002A3108430F49C8630120FFF7E7F900E0E1
:103FE000761E1548006800F4005038B91148007872
:103FF00020B90E48007808B9002EF1D10EB904207E
:1040000000E70A48007810B1084890F800A0504630
:10401000F8E6000000800140140000202C1200206F
:10402000181200201C000020FFFF7F001E0000204F
:104030001D0000201F000020000402402DE9FE4F5B
:1040400083460C46914600200290002625462C46C9
:10405000700240EAD5566D020BF00300F0B14FF04C
:10406000000A18E04FF4007000904FEA4A20471908
:1040700046EBE0733A461648FFF7B4FE02904FF461
:10408000007213495846FCF7EFFA0BF5007B0AF172
:10409000010000F0FF0ACA45E4DB16E0B9F1010FA8
:1040A00009D14FF400702A46334600905846FFF776
:1040B00099FE029009E04FF400702A463346CDE99C
:1040C0000009584600F006F802900298BDE8FE8FFD
:1040D000C01200202DE9FF5F17469846DDE90E4625
:1040E0004FF00009CA464FF0FF35A9490098086013
:1040F0000020A849C862A8480078022805D1040217
:10410000780A40EAC8574FEA68280020A349886027
:104110004860401E0860012048610020C8600861B6
:104120000846FFF749F99B48406900F0007018B154
:104130000E2004B0BDE8F09F002C21DDB4F5006F27
:104140001EDC601E2040D8B9204607F038F88346B0
:104150009348046010209249486040208860002005
:10416000C8604FF4806008610846FFF785F91020A9
:10417000FCF7DAFE8146B9F1000F03D04846D8E7D4
:104180002620D6E7012E70D906FB04F0B0F1007F9F
:1041900001D32620CDE74FEA0B108049886006FB4B
:1041A00004F048604FF0FF300860012048610220B1
:1041B000C860002008610846FFF7FEF878480760ED
:1041C000122077494860402088600020C8604FF482
:1041D000806008610846FFF74FF91220FCF7A4FE43
:1041E0008146B9F1000F01D04846A2E76D4800783A
:1041F00000287DD1FDF730FC1EE04FF40040FFF7B2
:1042000005F9A8B14FF0000A08E062488030006864
:104210005F49096841F82A000AF1010ABAF1080F5A
:10422000F3D35B4800682030594908605E4D03E0D5
:104230000DB904207DE76D1E5648406B40F22A31CF
:1042400008400028D9D00820FFF7E0F820B1082066
:10425000FFF796F804206CE70220FFF7D7F828B1A3
:104260000220FFF78DF8022063E78EE02020FFF7A1
:10427000CDF820B12020FFF783F8062059E74FF44E
:104280000070FFF7C3F828B14FF40070FFF778F81B
:1042900007204EE709E0FFF7E9F83D4909680860A3
:1042A0003B480068001D3A4908604FF40010FFF7D2
:1042B000ADF80028EFD14FF48070FFF7A7F820B3D6
:1042C0003548007838B134480078012803D03248A6
:1042D0000078022819D10020314908600C2048607C
:1042E000402088600020C8604FF48060086100E0D2
:1042F00012E00846FFF7C0F80C20FCF715FE8146D7
:10430000B9F1000F01D0484613E7FDF7A7FB40F2D3
:10431000FF50FFF735F838E022480078012834D103
:1043200006FB04F100220098FFF7D0F800201F4997
:10433000087001201E49087000201E4908701548A9
:10434000C06B40F22A3108431249C8630846C06A6C
:1043500040F00800C86200E06D1E1748006800F4D5
:10436000005008B9002DF7D10DB90420E1E600BFD7
:104370001048007818B90D4800780028F8D00B488C
:10438000007810B1094890F800904846D1E6000046
:104390002000002000800140140000202C1200208A
:1043A000181200201C000020FFFF7F001E000020CC
:1043B0001D0000201F0000200004024010B504462C
:1043C00009480460072008494860402088600020B0
:1043D000C8604FF4806008610846FFF74DF8072079
:1043E000FCF7A2FD10BD00001812002001460020BD
:1043F000012900D011B9024B197000E02620704746
:104400001C0000202DE9FF5F86B017469846149DDA
:1044100000260020059004900024814603908246E7
:1044200002900195DDF818B0DDF818B0BBF1000F6F
:1044300003D126200AB0BDE8F09F0020C449C8621D
:10444000C44988604860401E08600120486100201F
:10445000C86008610846FEF7AFFFBD48406900F03C
:10446000007008B10E20E5E7BB480078022805D1AE
:104470000502780A40EAC8574FEA6828002D1FDD78
:10448000B5F5006F1CDC681E2840C8B9284606F048
:1044900096FE0590B14805601020B0494860402064
:1044A00088600020C8604FF4806008610846FEF70D
:1044B000E3FF1020FCF738FD06461EB13046B9E791
:1044C0002620B7E7A64800880004A44908600D200C
:1044D0004860402088600020C8604FF48060086118
:1044E0000846FEF7C9FF0D20FCF71EFD06460EB17B
:1044F00030469FE79648406903904FF0FF341BE039
:10450000641E974800880004944908600D204860A4
:10451000402088600020C8604FF480600861084631
:10452000FEF7AAFF0D20FCF7FFFC06460EB1304651
:1045300080E7874840690390039800F4807008B9C9
:10454000002CDDD10CB9292074E7844807601820BD
:1045500082494860402088600020C8604FF4806035
:1045600008610846FEF788FF1820FCF7DDFC0646C8
:104570000EB130465EE700207A49087005980001C8
:1045800074498860084645604FF0FF30086001209C
:1045900048610020C86008610846FEF70DFF4FF033
:1045A000FF347148007800287BD1FDF755FA43E0CD
:1045B0004FF48040FEF72AFFC8B30198A0EB090032
:1045C000202821D20198A0EB090000F0030020B9B7
:1045D0000198A0EB0900800804E00198A0EB090015
:1045E0008008401C02904FF0000A09E0DBF8000050
:1045F000FEF766FF0AF1010A0BF1040B09F1040949
:1046000002988245F2D30FE04FF0000A05E05BF814
:104610002A00FEF755FF0AF1010ABAF1080FF6D396
:104620000BF1200B09F120096FF0404404E0FFE793
:104630000CB90420FEE6641E4548406B40F21A6146
:1046400008400028B4D00820FEF7E0FE20B1082082
:10465000FEF796FE0420EDE60220FEF7D7FE20B11D
:104660000220FEF78DFE0220E4E61020FEF7CEFECB
:1046700020B11020FEF784FE0520DBE64FF4007029
:10468000FEF7C4FE30B14FF40070FEF779FE07204C
:10469000D0E606E0FDF7E2F940F2FF502C498863CE
:1046A0003EE03148007801283AD110222946069888
:1046B000FEF70CFF00202D4908702A4908702C498C
:1046C00008702348C06B40F21A3108432049C86380
:1046D0000846C06A40F00800C86200E0641E254831
:1046E000006800F4005008B9002CF7D11CB9FFF79E
:1046F000DFF804209EE64FF0FF3400E0641E1C4803
:10470000007820B91948007808B9002CF6D10CB906
:1047100004208FE61548007810B11448007889E627
:1047200040F2FF50FEF72CFE04A8FDF799F906466B
:1047300003E004A8FDF794F906463EB99DF8100081
:104740000728F6D09DF810000628F2D0304671E612
:10475000008001402C1200201400002018120020BC
:10476000180000201D0000201C0000201E0000205A
:104770001F000020000402402DE9FE4F81460C4638
:10478000924600200290002625462C46700240EA00
:10479000D5566D0209F00300F0B14FF0000B18E0A0
:1047A0004FF4007249461948FBF75EFF4FF4007062
:1047B00000904FEA4B20471946EBE0733A46134806
:1047C000FFF720FE029009F500790BF1010000F0DF
:1047D000FF0BD345E4DB16E0BAF1010F09D14FF42A
:1047E00000702A46334600904846FFF70BFE0290C1
:1047F00009E04FF400702A463346CDE9000A4846E6
:1048000000F006F802900298BDE8FE8FC01200206A
:104810002DE9FF5F84B0DDE91247002600200390F8
:104820000290002580468146019007FB04FBDDF8DD
:1048300010A0DDF810A0BAF1000F03D1262008B0B7
:10484000BDE8F09F0020D849C862D8498860486018
:10485000401E0860012048610020C86008610846C9
:10486000FEF7AAFDD048406900F0007008B10E20A4
:10487000E5E7CF480078022808D10402DDE9060107
:10488000400A40EAC1504912CDE90601002C1FDD63
:10489000B4F5006F1CDC601E2040C8B9204606F04D
:1048A0008EFC0390C34804601020C2494860402039
:1048B00088600020C8604FF4806008610846FEF7F9
:1048C000DBFD1020FCF730FB06461EB13046B6E794
:1048D0002620B4E7012F6FD907FB04F0B0F1007F69
:1048E00001D32620ABE7B248007838B1B048007851
:1048F000012803D0AE48007802282DD1AE480088A8
:104900000004AC49086037204860402088600020DF
:10491000C8604FF4806008610846FEF7ADFD37209F
:10492000FCF702FB06460EB1304688E7A148076057
:104930001720A0494860402088600020C8604FF4DC
:10494000806008610846FEF797FD1720FCF7ECFA37
:1049500006460EB1304672E796490698086019205F
:104960004860402088600020C8604FF48060086183
:104970000846FEF781FD1920FCF7D6FA06460EB16F
:1049800030465CE7039800018849886007FB04F023
:1049900048604FF0FF300860012048610020C86087
:1049A00008610846FEF708FD84480078002871D1A8
:1049B000451EFDF751F840E0DEE07B48406B00F417
:1049C0008040A8B3ABEB080020281ED2ABEB080058
:1049D00000F0030018B9ABEB0800800803E0ABEB74
:1049E00008008008401C01904FF0000909E0DAF847
:1049F0000000FEF765FD09F101090AF1040A08F15A
:104A0000040801988145F2D30FE04FF0000905E05A
:104A10005AF82900FEF754FD09F10109B9F1080F10
:104A2000F6D30AF1200A08F120086FF0404504E0AF
:104A3000FFE70DB9042002E76D1E5B48406B40F2B2
:104A40001A3108400028B8D00820FEF7DFFC20B15A
:104A50000820FEF795FC0420F1E60220FEF7D6FCC4
:104A600020B10220FEF78CFC0220E8E61020FEF7C1
:104A7000CDFC20B11020FEF783FC0520DFE64FF4CB
:104A80000070FEF7C3FC30B14FF40070FEF778FC05
:104A90000720D4E62CE04FF48070FEF7B7FC00B39B
:104AA0004348007838B142480078012803D0404894
:104AB0000078022815D100203E4908600C2048608B
:104AC000402088600020C8604FF48060086108467C
:104AD000FEF7D2FC0C20FCF727FA06460EB1304652
:104AE000ADE6FCF7BBFF40F2FF50FEF749FC43E0A8
:104AF0003248007801283FD107FB04F110220498C6
:104B0000FEF7E4FC00202E49087001202D490870B2
:104B100000202D4908702448C06B40F21A31084328
:104B20002149C8630846C06A40F00800C8624FF0D7
:104B3000FF3500E06D1E2548006800F4005008B9FC
:104B4000002DF7D11DB9FEF7B3FE042077E64FF034
:104B5000FF3500E06D1E1C48007820B91848007829
:104B600008B9002DF6D10DB9042068E61448007884
:104B700010B11348007862E640F2FF50FEF700FCE7
:104B800002A8FCF76DFF064603E002A8FCF768FFE9
:104B900006463EB99DF808000728F6D09DF80800A3
:104BA0000628F2D030464AE6008001402C12002050
:104BB0001400002018120020180000201C00002003
:104BC0001E0000201D0000201F00002000040240E5
:104BD00000B587B001210420FEF7F2FA0121080395
:104BE000FEF7EEFAE020ADF8180018208DF81B0053
:104BF00003208DF81A0006A91748FCF74FFEE021A4
:104C00001548FCF7E1FE0020ADF804004FF4827077
:104C1000ADF806000020ADF808000220ADF80A004B
:104C20000120ADF80C004002ADF80E001820ADF8E0
:104C300010000020ADF812000720ADF8140001A903
:104C4000064800F065F80121044800F047F8FF200D
:104C500000F006F807B000BD000801400030014038
:104C600070B50546002405E0601CC4B2C82C01DD07
:104C7000002070BD02210E4800F03CF80028F3D05F
:104C800029460B4800F042F8002405E0601CC4B23D
:104C9000C82C01DD0020ECE70121054800F02AF8CE
:104CA0000028F3D0024800F02EF8C0B2E1E700007F
:104CB0000030014010B50446074800884FF6C77120
:104CC00008400549088008460088204308800121E3
:104CD000014800F003F810BD0030014021B1028806
:104CE00042F04002028004E002884FF6BF731A408F
:104CF000028070470246002013890B400BB101204F
:104D000000E0002070470146888970478181704724
:104D100010B50022028802F441520B884C882343CC
:104D20008C882343CC8823430C8923434C89234319
:104D30008C892343CC8923431A430280838B4FF20F
:104D4000FF74234083830B8A038210BD30B5034672
:104D50000C461546002207E0184600F008F824F833
:104D600012009B1C501C82B2AA42F5DB30BD0146EA
:104D7000088870472DE9F05F80468A461746B8F1EB
:104D8000006F02D33348804501D3BDE8F09FFCF7A4
:104D9000C7FBA8F1006B4FEADB25CBF34909C9F546
:104DA0008064A74200DC3C464DE04FF0006101EB1F
:104DB000C5204A142849FFF7C9FF00260BE009EB7C
:104DC0000600254931F810004FF6FF71884200D0E7
:104DD00003E0701C86B2A642F1DB00BFA6421BDADC
:104DE0004FF0006101EBC520FCF730FB002608E026
:104DF0003AF8160006EB0901174A22F81100701C58
:104E000086B2A642F4DB4FF0006101EBC5204A14E4
:104E1000114900F023F804E022465146404600F0D4
:104E20001DF8A74200D10FE06D1C4FF000090AEBFE
:104E3000440AA044381B87B2B7F5806F02DD4FF4F7
:104E4000806400E03C46B0E700BFFCF73FFB00BFDA
:104E50009BE7000000000808CE2400202DE9F04167
:104E600005460E461746002407E036F8141028467B
:104E7000FCF736FBAD1C601C84B2BC42F5DBBDE820
:104E8000F081704770B5064604211448FCF79AFD7E
:104E90006820FCF7FFF9002415E046FA04F000F062
:104EA00001053DB904210D48FCF78CFD6820FCF795
:104EB000F1F906E004210948FCF786FD6820FCF7BB
:104EC000E9F9601CC4B2082CE7DB04210348FCF7B5
:104ED0007BFD6820FCF7DEF970BD00000018014082
:104EE00010B500F001F810BD0CB500200190009045
:104EF0003348006840F480303149086000BF3048D2
:104F0000006800F4003000900198401C0190009867
:104F100018B90198B0F5A06FF1D12948006800F4E4
:104F2000003010B10120009001E0002000900098B6
:104F3000012843D12348006840F01000214908604F
:104F40000846006820F0030008600846006840F04A
:104F5000020008601A4840681949486008464068DD
:104F600048600846406840F48060486008464068F1
:104F700020F47C1048600846406840F4E81048601F
:104F80000846006840F08070086000BF0C48006868
:104F900000F000700028F9D00948406820F00300B4
:104FA000074948600846406840F00200486000BF7A
:104FB0000348406800F00C000828F9D10CBD00003F
:104FC000001002400020024010B5FCF721FCFCF765
:104FD000C1F905F009FB05F07FFB05F0BFFB10BD33
:104FE000042808D14FF0E021096941F004014FF095
:104FF000E022116107E04FF0E021096921F004018E
:105000004FF0E0221161704710B505480078012883
:1050100005D1FDF77DFAFDF759FDFDF78BFA10BDBF
:10502000A600002010B51348006840F001001149A7
:10503000086008464068104908400E494860084624
:1050400000680E4908400B4908600846006820F4D3
:10505000802008600846406820F4FE0048604FF455
:105060001F008860FFF73CFF4FF0006004490860B4
:1050700010BD0000001002400000FFF8FFFFF6FE28
:1050800008ED00E000B59FB001210802FEF768F8C6
:1050900001214FF4B470FEF793F80120ADF87800C9
:1050A00010208DF87B0003208DF87A001EA9FE48A1
:1050B000FCF7F4FB0121FC48FCF786FC0120ADF86D
:1050C000780010208DF87B0003208DF87A001EA94F
:1050D000F648FCF7E3FB4CF23370ADF8780018208B
:1050E0008DF87B0003208DF87A001EA9F048FCF7AC
:1050F000D5FB4FF68070ADF8780018208DF87B0056
:1051000003208DF87A001EA9EA48FCF7C7FB41F29C
:105110000100ADF8780018208DF87B0003208DF891
:105120007A001EA9E448FCF7B9FB01200890002092
:1051300009900F200A9000200B900C900D900E907B
:1051400001900290032003900020049005900690A7
:10515000079006200F9000201090119010201290C0
:105160000020139015901490169017904FF48050D3
:105170001890002019904FF480401A9000201B9046
:1051800008A81C9001A81D900FA8FCF703FA0121A4
:105190000620FCF7E5F9322006F060F90020FCF764
:1051A000FBFDC649888008468088FF280ADB084640
:1051B00080884FF6FF71884204D0C0488088B0F5DF
:1051C000134F7CD1D320FDF76DF8FCF7DBFDBB4915
:1051D0008880FCF7D7FDB9498880FCF7D3FDB74933
:1051E0008880084680884FF6FF7101EA0020B349A5
:1051F0008880FCF7C7FDB14989880843AF4988809A
:105200000846808849F24131884258D0BF20FDF7D6
:1052100049F8FCF7B7FDA9498880FCF7B3FDA74919
:105220008880FCF7AFFDA5498880FCF7ABFDA3495A
:105230008880084680884FF6FF7101EA00209F4968
:105240008880FCF79FFD9D49898808439B49888099
:105250000846808846F6040188427AD0D420FDF7BB
:1052600021F8FCF78FFD95498880FCF78BFD934969
:105270008880FCF787FD91498880084680884FF632
:10528000FF7101EA00208D498880FCF77BFD8B4986
:1052900089880843894988800846808845F210310A
:1052A000884256D04FF45A40FCF7FCFFFCF76AFDE9
:1052B000824988804FF45B40FCF7F4FF00E048E04F
:1052C000FCF760FD7D498880084680884FF6FF71B5
:1052D00001EA0020794988804FF45C40FCF7E2FF46
:1052E000FCF750FD75498988084374498880084651
:1052F0008088B0F5004F02D145F2105088806F4889
:10530000808845F21051884223D0A120FCF7CAFFC3
:10531000FCF738FD69498880FCF734FD67498880CF
:10532000084680884FF6FF7101EA002063498880B3
:10533000FCF728FD61498988084360498880084650
:10534000808845F26171884203D141F663105B4960
:1053500088805A4881885AA0FAF7C8FF5748808841
:1053600049F6060188427DD159A0FAF7BFFF802196
:105370004FF47F40FCF7A6FF09214FF60170FCF7C0
:10538000A1FF01214FF60270FCF79CFF80214FF630
:105390008070FCF797FF09214FF68170FCF792FFB0
:1053A00001214FF60370FCF78DFF30214CF2804055
:1053B000FCF788FF0A2006F051F840214CF28A40A1
:1053C000FCF780FF0A2006F049F802214BF29030EA
:1053D000FCF778FF45214BF29230FCF773FF002178
:1053E0004CF28000FCF76EFF58214CF28100FCF774
:1053F00069FF00214CF28200FCF764FF15214CF29A
:105400008300FCF75FFF15214CF28400FCF75AFF84
:1054100000214CF28500FCF755FF58214CF2860024
:10542000FCF750FF15214CF28700FCF74BFF1521CC
:105430004CF28800FCF746FF00214CF29000FCF78C
:1054400041FF44214CF29100FCF73CFF00214CF25B
:105450009200FCF737FF00214CF29300FCF732FF7B
:10546000002100E0F0E34CF29400FCF72BFF032155
:105470004CF29500FCF726FF00214CF2A300FCF74C
:1054800021FF50214CF2B400FCF71CFF66214CF2C6
:105490008110FCF717FF08214CF2A110FCF712FF56
:1054A00000214CF2A61019E000100140000C014050
:1054B000001401400018014000200140C0140020E9
:1054C000204C43442049443A25780D0A000000004E
:1054D0006C636420696E6974200A0000FCF7F2FEB8
:1054E00000214CF2A710FCF7EDFE00214CF2A810B1
:1054F000FCF7E8FE30214CF28040FCF7E3FE83210C
:105500004CF28140FCF7DEFE08214CF28940FCF7AA
:10551000D9FE40214CF28A40FCF7D4FEA3214CF284
:105520008250FCF7CFFE96214CF29050FCF7CAFE59
:1055300086214CF29150FCF7C5FE01214CF29250AD
:10554000FCF7C0FEA9214CF2B150FCF7BBFE87214D
:105550004CF68060FCF7B6FE03214CF68160FCF748
:10556000B1FE00214CF68260FCF7ACFE86214CF6C1
:105570008360FCF7A7FE03214CF68460FCF7A2FED3
:1055800000214CF68560FCF79DFE85214CF6866077
:10559000FCF798FE03214CF68760FCF793FE002190
:1055A0004CF68860FCF78EFE84214CF68960FCF78F
:1055B00089FE03214CF68A60FCF784FE00214CF63C
:1055C0008B60FCF77FFE33214CF69060FCF77AFE8F
:1055D00052214CF69160FCF775FE00214CF692606A
:1055E000FCF770FE33214CF69360FCF76BFE532101
:1055F0004CF69460FCF766FE00214CF69560FCF7D3
:1056000061FE33214CF69660FCF75CFE54214CF6AB
:105610009760FCF757FE00214CF69860FCF752FEAD
:1056200033214CF69960FCF74DFE55214CF69A60FB
:10563000FCF748FE00214CF69B60FCF743FE00217E
:105640004CF69C60FCF73EFE00214CF69D60FCF79A
:1056500039FE38214CF6A060FCF734FE05214CF6EB
:10566000A160FCF72FFE03214CF6A260FCF72AFE96
:1056700056214CF6A360FCF725FE00214CF6A460F1
:10568000FCF720FE00214CF6A560FCF71BFE002174
:105690004CF6A660FCF716FE38214CF6A760FCF726
:1056A00011FE04214CF6A860FCF70CFE03214CF619
:1056B000A960FCF707FE57214CF6AA60FCF702FE32
:1056C00000214CF6AB60FCF7FDFD00214CF6AC6010
:1056D000FCF7F8FD00214CF6AD60FCF7F3FD382136
:1056E0004CF6B060FCF7EEFD03214CF6B160FCF720
:1056F000E9FD03214CF6B260FCF7E4FD58214CF6BD
:10570000B360FCF7DFFD00214CF6B460FCF7DAFD76
:1057100000214CF6B560FCF7D5FD00214CF6B660D3
:10572000FCF7D0FD38214CF6B760FCF7CBFD022129
:105730004CF6B860FCF7C6FD03214CF6B960FCF7E7
:10574000C1FD59214CF6BA60FCF7BCFD00214CF6B6
:10575000BB60FCF7B7FD00214CF6BC60FCF7B2FD66
:1057600000214CF6BD60FCF7ADFD38214CF6C06061
:10577000FCF7A8FD01214CF6C160FCF7A3FD032155
:105780004CF6C260FCF79EFD5A214CF6C360FCF754
:1057900099FD00214CF6C460FCF794FD00214CF605
:1057A000C560FCF78FFD00214CF6C660FCF78AFD52
:1057B00038214CF6C760FCF785FD00214CF6C86027
:1057C000FCF780FD03214CF6C960FCF77BFD5C21F2
:1057D0004CF6CA60FCF776FD00214CF6CB60FCF776
:1057E00071FD00214CF6CC60FCF76CFD00214CF6FD
:1057F000CD60FCF767FD30214CF6D060FCF762FD10
:1058000000214CF6D160FCF75DFD03214CF6D2601F
:10581000FCF758FD5C214CF6D360FCF753FD0021EA
:105820004CF6D460FCF74EFD00214CF6D560FCF739
:1058300049FD00214CF6D660FCF744FD30214CF6C2
:10584000D760FCF73FFD01214CF6D860FCF73AFD2C
:1058500003214CF6D960FCF735FD5D214CF6DA608A
:10586000FCF730FD00214CF6DB60FCF72BFD00213E
:105870004CF6DC60FCF726FD00214CF6DD60FCF701
:1058800021FD14214CF6C330FCF71CFD14214CF60D
:10589000C430FCF717FD14214CF6C530FCF712FD9F
:1058A00014214CF6C630FCF70DFD14214CF6C73020
:1058B000FCF708FD14214CF6C830FCF703FD142159
:1058C0004CF6C930FCF7FEFC14214CF6CA30FCF74C
:1058D000F9FC14214CF6D830FCF7F4FC14214CF6FA
:1058E000D930FCF7EFFC14214CF6DA30FCF7EAFC77
:1058F00014214CF6DB30FCF7E5FC14214CF6DC30CF
:10590000FCF7E0FC14214CF6DD30FCF7DBFC142145
:105910004CF6DE30FCF7D6FC14214CF6E030FCF7F8
:10592000D1FC03214CF68340FCF7CCFC01214CF662
:105930008440FCF7C7FC09214CF68540FCF7C2FC0B
:105940000B214CF68640FCF7BDFC0D214CF6874040
:10595000FCF7B8FC0F214CF68840FCF7B3FC05219E
:105960004CF68940FCF7AEFC07214CF69040FCF762
:10597000A9FC04214CF69D40FCF7A4FC02214CF646
:105980009E40FCF79FFC0A214CF6A040FCF79AFCD5
:105990000C214CF6A140FCF795FC0E214CF6A240E0
:1059A000FCF790FC10214CF6A340FCF78BFC062181
:1059B0004CF6A440FCF786FC08214CF6A540FCF709
:1059C00081FC06214CF6B340FCF77CFC08214CF628
:1059D000B440FCF777FC0A214CF6B540FCF772FCAA
:1059E00010214CF6B640FCF76DFC0E214CF6B7408A
:1059F000FCF768FC0C214CF6B840FCF763FC042172
:105A00004CF6B940FCF75EFC02214CF6C040FCF7B6
:105A100059FC05214CF6CD40FCF754FC07214CF60F
:105A2000CE40FCF74FFC09214CF6D040FCF74AFC75
:105A30000F214CF6D140FCF745FC0D214CF6D2402D
:105A4000FCF740FC0B214CF6D340FCF73BFC032158
:105A50004CF6D440FCF736FC01214CF6D540FCF75F
:105A600031FC02214CF6C770FCF72CFC6F214FF47F
:105A70005840FCF727FC6F214DF60100FCF722FC93
:105A800042214FF45940FCF71DFC06214FF46140C0
:105A9000FCF718FC0A214EF20110FCF713FC11214F
:105AA0004EF20210FCF70EFC0F214EF20310FCF731
:105AB00009FC0A214EF20410FCF704FC1F214EF2EF
:105AC0000510FCF7FFFB0E214EF20610FCF7FAFB67
:105AD0000D214EF20710FCF7F5FB00214EF20810E5
